{
  "_format": "hh-sol-artifact-1",
  "contractName": "ChimeraFactory",
  "sourceName": "contracts/ChimeraFactory.sol",
  "abi": [
    {
      "inputs": [],
      "stateMutability": "nonpayable",
      "type": "constructor"
    },
    {
      "inputs": [
        {
          "internalType": "address",
          "name": "sender",
          "type": "address"
        },
        {
          "internalType": "uint256",
          "name": "tokenId",
          "type": "uint256"
        },
        {
          "internalType": "address",
          "name": "owner",
          "type": "address"
        }
      ],
      "name": "ERC721IncorrectOwner",
      "type": "error"
    },
    {
      "inputs": [
        {
          "internalType": "address",
          "name": "operator",
          "type": "address"
        },
        {
          "internalType": "uint256",
          "name": "tokenId",
          "type": "uint256"
        }
      ],
      "name": "ERC721InsufficientApproval",
      "type": "error"
    },
    {
      "inputs": [
        {
          "internalType": "address",
          "name": "approver",
          "type": "address"
        }
      ],
      "name": "ERC721InvalidApprover",
      "type": "error"
    },
    {
      "inputs": [
        {
          "internalType": "address",
          "name": "operator",
          "type": "address"
        }
      ],
      "name": "ERC721InvalidOperator",
      "type": "error"
    },
    {
      "inputs": [
        {
          "internalType": "address",
          "name": "owner",
          "type": "address"
        }
      ],
      "name": "ERC721InvalidOwner",
      "type": "error"
    },
    {
      "inputs": [
        {
          "internalType": "address",
          "name": "receiver",
          "type": "address"
        }
      ],
      "name": "ERC721InvalidReceiver",
      "type": "error"
    },
    {
      "inputs": [
        {
          "internalType": "address",
          "name": "sender",
          "type": "address"
        }
      ],
      "name": "ERC721InvalidSender",
      "type": "error"
    },
    {
      "inputs": [
        {
          "internalType": "uint256",
          "name": "tokenId",
          "type": "uint256"
        }
      ],
      "name": "ERC721NonexistentToken",
      "type": "error"
    },
    {
      "inputs": [
        {
          "internalType": "address",
          "name": "owner",
          "type": "address"
        }
      ],
      "name": "OwnableInvalidOwner",
      "type": "error"
    },
    {
      "inputs": [
        {
          "internalType": "address",
          "name": "account",
          "type": "address"
        }
      ],
      "name": "OwnableUnauthorizedAccount",
      "type": "error"
    },
    {
      "anonymous": false,
      "inputs": [
        {
          "indexed": true,
          "internalType": "address",
          "name": "owner",
          "type": "address"
        },
        {
          "indexed": true,
          "internalType": "address",
          "name": "approved",
          "type": "address"
        },
        {
          "indexed": true,
          "internalType": "uint256",
          "name": "tokenId",
          "type": "uint256"
        }
      ],
      "name": "Approval",
      "type": "event"
    },
    {
      "anonymous": false,
      "inputs": [
        {
          "indexed": true,
          "internalType": "address",
          "name": "owner",
          "type": "address"
        },
        {
          "indexed": true,
          "internalType": "address",
          "name": "operator",
          "type": "address"
        },
        {
          "indexed": false,
          "internalType": "bool",
          "name": "approved",
          "type": "bool"
        }
      ],
      "name": "ApprovalForAll",
      "type": "event"
    },
    {
      "anonymous": false,
      "inputs": [
        {
          "indexed": true,
          "internalType": "address",
          "name": "bornBy",
          "type": "address"
        },
        {
          "indexed": false,
          "internalType": "uint256",
          "name": "timestamp",
          "type": "uint256"
        }
      ],
      "name": "Born",
      "type": "event"
    },
    {
      "anonymous": false,
      "inputs": [
        {
          "indexed": true,
          "internalType": "address",
          "name": "contributor",
          "type": "address"
        },
        {
          "indexed": false,
          "internalType": "uint8",
          "name": "geneType",
          "type": "uint8"
        },
        {
          "indexed": false,
          "internalType": "uint8",
          "name": "value",
          "type": "uint8"
        }
      ],
      "name": "GeneContributed",
      "type": "event"
    },
    {
      "anonymous": false,
      "inputs": [
        {
          "indexed": true,
          "internalType": "address",
          "name": "previousOwner",
          "type": "address"
        },
        {
          "indexed": true,
          "internalType": "address",
          "name": "newOwner",
          "type": "address"
        }
      ],
      "name": "OwnershipTransferred",
      "type": "event"
    },
    {
      "anonymous": false,
      "inputs": [
        {
          "indexed": true,
          "internalType": "address",
          "name": "from",
          "type": "address"
        },
        {
          "indexed": true,
          "internalType": "address",
          "name": "to",
          "type": "address"
        },
        {
          "indexed": true,
          "internalType": "uint256",
          "name": "tokenId",
          "type": "uint256"
        }
      ],
      "name": "Transfer",
      "type": "event"
    },
    {
      "inputs": [
        {
          "internalType": "address",
          "name": "to",
          "type": "address"
        },
        {
          "internalType": "uint256",
          "name": "tokenId",
          "type": "uint256"
        }
      ],
      "name": "approve",
      "outputs": [],
      "stateMutability": "nonpayable",
      "type": "function"
    },
    {
      "inputs": [
        {
          "internalType": "address",
          "name": "owner",
          "type": "address"
        }
      ],
      "name": "balanceOf",
      "outputs": [
        {
          "internalType": "uint256",
          "name": "",
          "type": "uint256"
        }
      ],
      "stateMutability": "view",
      "type": "function"
    },
    {
      "inputs": [],
      "name": "birth",
      "outputs": [],
      "stateMutability": "nonpayable",
      "type": "function"
    },
    {
      "inputs": [
        {
          "internalType": "uint8",
          "name": "geneType",
          "type": "uint8"
        },
        {
          "internalType": "uint8",
          "name": "value",
          "type": "uint8"
        }
      ],
      "name": "contribute",
      "outputs": [],
      "stateMutability": "nonpayable",
      "type": "function"
    },
    {
      "inputs": [
        {
          "internalType": "uint8",
          "name": "",
          "type": "uint8"
        }
      ],
      "name": "dna",
      "outputs": [
        {
          "internalType": "uint8",
          "name": "",
          "type": "uint8"
        }
      ],
      "stateMutability": "view",
      "type": "function"
    },
    {
      "inputs": [
        {
          "internalType": "uint256",
          "name": "tokenId",
          "type": "uint256"
        }
      ],
      "name": "getApproved",
      "outputs": [
        {
          "internalType": "address",
          "name": "",
          "type": "address"
        }
      ],
      "stateMutability": "view",
      "type": "function"
    },
    {
      "inputs": [
        {
          "internalType": "uint8",
          "name": "geneType",
          "type": "uint8"
        }
      ],
      "name": "getGene",
      "outputs": [
        {
          "internalType": "uint8",
          "name": "",
          "type": "uint8"
        }
      ],
      "stateMutability": "view",
      "type": "function"
    },
    {
      "inputs": [
        {
          "internalType": "address",
          "name": "",
          "type": "address"
        }
      ],
      "name": "hasMinted",
      "outputs": [
        {
          "internalType": "bool",
          "name": "",
          "type": "bool"
        }
      ],
      "stateMutability": "view",
      "type": "function"
    },
    {
      "inputs": [
        {
          "internalType": "address",
          "name": "owner",
          "type": "address"
        },
        {
          "internalType": "address",
          "name": "operator",
          "type": "address"
        }
      ],
      "name": "isApprovedForAll",
      "outputs": [
        {
          "internalType": "bool",
          "name": "",
          "type": "bool"
        }
      ],
      "stateMutability": "view",
      "type": "function"
    },
    {
      "inputs": [],
      "name": "isBorn",
      "outputs": [
        {
          "internalType": "bool",
          "name": "",
          "type": "bool"
        }
      ],
      "stateMutability": "view",
      "type": "function"
    },
    {
      "inputs": [
        {
          "internalType": "address",
          "name": "",
          "type": "address"
        }
      ],
      "name": "isContributor",
      "outputs": [
        {
          "internalType": "bool",
          "name": "",
          "type": "bool"
        }
      ],
      "stateMutability": "view",
      "type": "function"
    },
    {
      "inputs": [],
      "name": "mint",
      "outputs": [],
      "stateMutability": "nonpayable",
      "type": "function"
    },
    {
      "inputs": [],
      "name": "name",
      "outputs": [
        {
          "internalType": "string",
          "name": "",
          "type": "string"
        }
      ],
      "stateMutability": "view",
      "type": "function"
    },
    {
      "inputs": [],
      "name": "owner",
      "outputs": [
        {
          "internalType": "address",
          "name": "",
          "type": "address"
        }
      ],
      "stateMutability": "view",
      "type": "function"
    },
    {
      "inputs": [
        {
          "internalType": "uint256",
          "name": "tokenId",
          "type": "uint256"
        }
      ],
      "name": "ownerOf",
      "outputs": [
        {
          "internalType": "address",
          "name": "",
          "type": "address"
        }
      ],
      "stateMutability": "view",
      "type": "function"
    },
    {
      "inputs": [],
      "name": "renounceOwnership",
      "outputs": [],
      "stateMutability": "nonpayable",
      "type": "function"
    },
    {
      "inputs": [
        {
          "internalType": "address",
          "name": "from",
          "type": "address"
        },
        {
          "internalType": "address",
          "name": "to",
          "type": "address"
        },
        {
          "internalType": "uint256",
          "name": "tokenId",
          "type": "uint256"
        }
      ],
      "name": "safeTransferFrom",
      "outputs": [],
      "stateMutability": "nonpayable",
      "type": "function"
    },
    {
      "inputs": [
        {
          "internalType": "address",
          "name": "from",
          "type": "address"
        },
        {
          "internalType": "address",
          "name": "to",
          "type": "address"
        },
        {
          "internalType": "uint256",
          "name": "tokenId",
          "type": "uint256"
        },
        {
          "internalType": "bytes",
          "name": "data",
          "type": "bytes"
        }
      ],
      "name": "safeTransferFrom",
      "outputs": [],
      "stateMutability": "nonpayable",
      "type": "function"
    },
    {
      "inputs": [
        {
          "internalType": "address",
          "name": "operator",
          "type": "address"
        },
        {
          "internalType": "bool",
          "name": "approved",
          "type": "bool"
        }
      ],
      "name": "setApprovalForAll",
      "outputs": [],
      "stateMutability": "nonpayable",
      "type": "function"
    },
    {
      "inputs": [
        {
          "internalType": "string",
          "name": "newBaseURI",
          "type": "string"
        }
      ],
      "name": "setBaseURI",
      "outputs": [],
      "stateMutability": "nonpayable",
      "type": "function"
    },
    {
      "inputs": [
        {
          "internalType": "bytes4",
          "name": "interfaceId",
          "type": "bytes4"
        }
      ],
      "name": "supportsInterface",
      "outputs": [
        {
          "internalType": "bool",
          "name": "",
          "type": "bool"
        }
      ],
      "stateMutability": "view",
      "type": "function"
    },
    {
      "inputs": [],
      "name": "symbol",
      "outputs": [
        {
          "internalType": "string",
          "name": "",
          "type": "string"
        }
      ],
      "stateMutability": "view",
      "type": "function"
    },
    {
      "inputs": [
        {
          "internalType": "uint256",
          "name": "tokenId",
          "type": "uint256"
        }
      ],
      "name": "tokenURI",
      "outputs": [
        {
          "internalType": "string",
          "name": "",
          "type": "string"
        }
      ],
      "stateMutability": "view",
      "type": "function"
    },
    {
      "inputs": [
        {
          "internalType": "address",
          "name": "from",
          "type": "address"
        },
        {
          "internalType": "address",
          "name": "to",
          "type": "address"
        },
        {
          "internalType": "uint256",
          "name": "tokenId",
          "type": "uint256"
        }
      ],
      "name": "transferFrom",
      "outputs": [],
      "stateMutability": "nonpayable",
      "type": "function"
    },
    {
      "inputs": [
        {
          "internalType": "address",
          "name": "newOwner",
          "type": "address"
        }
      ],
      "name": "transferOwnership",
      "outputs": [],
      "stateMutability": "nonpayable",
      "type": "function"
    }
  ],
  "bytecode": "0x60806040523480156200001157600080fd5b50336040518060400160405280601581526020017f446563656e7472616c697a6564204368696d65726100000000000000000000008152506040518060400160405280600581526020017f444348494d000000000000000000000000000000000000000000000000000000815250816000908162000090919062000472565b508060019081620000a2919062000472565b505050600073ffffffffffffffffffffffffffffffffffffffff168173ffffffffffffffffffffffffffffffffffffffff16036200011a5760006040517f1e4fbdf70000000000000000000000000000000000000000000000000000000081526004016200011191906200059e565b60405180910390fd5b6200012b816200013260201b60201c565b50620005bb565b6000600660009054906101000a900473ffffffffffffffffffffffffffffffffffffffff16905081600660006101000a81548173ffffffffffffffffffffffffffffffffffffffff021916908373ffffffffffffffffffffffffffffffffffffffff1602179055508173ffffffffffffffffffffffffffffffffffffffff168173ffffffffffffffffffffffffffffffffffffffff167f8be0079c531659141344cd1fd0a4f28419497f9722a3daafe3b4186f6b6457e060405160405180910390a35050565b600081519050919050565b7f4e487b7100000000000000000000000000000000000000000000000000000000600052604160045260246000fd5b7f4e487b7100000000000000000000000000000000000000000000000000000000600052602260045260246000fd5b600060028204905060018216806200027a57607f821691505b60208210810362000290576200028f62000232565b5b50919050565b60008190508160005260206000209050919050565b60006020601f8301049050919050565b600082821b905092915050565b600060088302620002fa7fffffffffffffffffffffffffffffffffffffffffffffffffffffffffffffffff82620002bb565b620003068683620002bb565b95508019841693508086168417925050509392505050565b6000819050919050565b6000819050919050565b6000620003536200034d62000347846200031e565b62000328565b6200031e565b9050919050565b6000819050919050565b6200036f8362000332565b620003876200037e826200035a565b848454620002c8565b825550505050565b600090565b6200039e6200038f565b620003ab81848462000364565b505050565b5b81811015620003d357620003c760008262000394565b600181019050620003b1565b5050565b601f8211156200042257620003ec8162000296565b620003f784620002ab565b8101602085101562000407578190505b6200041f6200041685620002ab565b830182620003b0565b50505b505050565b600082821c905092915050565b6000620004476000198460080262000427565b1980831691505092915050565b600062000462838362000434565b9150826002028217905092915050565b6200047d82620001f8565b67ffffffffffffffff81111562000499576200049862000203565b5b620004a5825462000261565b620004b2828285620003d7565b600060209050601f831160018114620004ea5760008415620004d5578287015190505b620004e1858262000454565b86555062000551565b601f198416620004fa8662000296565b60005b828110156200052457848901518255600182019150602085019450602081019050620004fd565b8683101562000544578489015162000540601f89168262000434565b8355505b6001600288020188555050505b505050505050565b600073ffffffffffffffffffffffffffffffffffffffff82169050919050565b6000620005868262000559565b9050919050565b620005988162000579565b82525050565b6000602082019050620005b560008301846200058d565b92915050565b612f2a80620005cb6000396000f3fe608060405234801561001057600080fd5b50600436106101735760003560e01c80636352211e116100de578063a22cb46511610097578063c81ba8f011610071578063c81ba8f014610448578063c87b56dd14610452578063e985e9c514610482578063f2fde38b146104b257610173565b8063a22cb465146103e0578063aaebdc12146103fc578063b88d4fde1461042c57610173565b80636352211e1461031e57806370a082311461034e578063715018a61461037e5780638da5cb5b146103885780638e49b95b146103a657806395d89b41146103c257610173565b80631d0d35f5116101305780631d0d35f51461023a57806323b872dd1461026a57806338e21cce146102865780633cb76a3e146102b657806342842e0e146102e657806355f804b31461030257610173565b806301ffc9a71461017857806306fdde03146101a8578063081812fc146101c6578063095ea7b3146101f65780631249c58b146102125780631c3ee6bc1461021c575b600080fd5b610192600480360381019061018d9190612014565b6104ce565b60405161019f919061205c565b60405180910390f35b6101b06105b0565b6040516101bd9190612107565b60405180910390f35b6101e060048036038101906101db919061215f565b610642565b6040516101ed91906121cd565b60405180910390f35b610210600480360381019061020b9190612214565b61065e565b005b61021a610674565b005b61022461085a565b604051610231919061205c565b60405180910390f35b610254600480360381019061024f9190612254565b61086d565b604051610261919061205c565b60405180910390f35b610284600480360381019061027f9190612281565b61088d565b005b6102a0600480360381019061029b9190612254565b61098f565b6040516102ad919061205c565b60405180910390f35b6102d060048036038101906102cb919061230d565b6109af565b6040516102dd9190612349565b60405180910390f35b61030060048036038101906102fb9190612281565b6109df565b005b61031c60048036038101906103179190612499565b6109ff565b005b6103386004803603810190610333919061215f565b610a1a565b60405161034591906121cd565b60405180910390f35b61036860048036038101906103639190612254565b610a2c565b60405161037591906124f1565b60405180910390f35b610386610ae6565b005b610390610afa565b60405161039d91906121cd565b60405180910390f35b6103c060048036038101906103bb919061250c565b610b24565b005b6103ca610d30565b6040516103d79190612107565b60405180910390f35b6103fa60048036038101906103f59190612578565b610dc2565b005b6104166004803603810190610411919061230d565b610dd8565b6040516104239190612349565b60405180910390f35b61044660048036038101906104419190612659565b610df8565b005b610450610e1d565b005b61046c6004803603810190610467919061215f565b610ee0565b6040516104799190612107565b60405180910390f35b61049c600480360381019061049791906126dc565b610f49565b6040516104a9919061205c565b60405180910390f35b6104cc60048036038101906104c79190612254565b610fdd565b005b60007f80ac58cd000000000000000000000000000000000000000000000000000000007bffffffffffffffffffffffffffffffffffffffffffffffffffffffff1916827bffffffffffffffffffffffffffffffffffffffffffffffffffffffff1916148061059957507f5b5e139f000000000000000000000000000000000000000000000000000000007bffffffffffffffffffffffffffffffffffffffffffffffffffffffff1916827bffffffffffffffffffffffffffffffffffffffffffffffffffffffff1916145b806105a957506105a882611063565b5b9050919050565b6060600080546105bf9061274b565b80601f01602080910402602001604051908101604052809291908181526020018280546105eb9061274b565b80156106385780601f1061060d57610100808354040283529160200191610638565b820191906000526020600020905b81548152906001019060200180831161061b57829003601f168201915b5050505050905090565b600061064d826110cd565b5061065782611155565b9050919050565b610670828261066b611192565b61119a565b5050565b600a60009054906101000a900460ff166106c3576040517f08c379a00000000000000000000000000000000000000000000000000000000081526004016106ba906127c8565b60405180910390fd5b600860003373ffffffffffffffffffffffffffffffffffffffff1673ffffffffffffffffffffffffffffffffffffffff16815260200190815260200160002060009054906101000a900460ff1661074f576040517f08c379a000000000000000000000000000000000000000000000000000000000815260040161074690612834565b60405180910390fd5b600960003373ffffffffffffffffffffffffffffffffffffffff1673ffffffffffffffffffffffffffffffffffffffff16815260200190815260200160002060009054906101000a900460ff16156107dc576040517f08c379a00000000000000000000000000000000000000000000000000000000081526004016107d3906128a0565b60405180910390fd5b6001600960003373ffffffffffffffffffffffffffffffffffffffff1673ffffffffffffffffffffffffffffffffffffffff16815260200190815260200160002060006101000a81548160ff02191690831515021790555061084033600b546111ac565b600b6000815480929190610853906128ef565b9190505550565b600a60009054906101000a900460ff1681565b60086020528060005260406000206000915054906101000a900460ff1681565b600073ffffffffffffffffffffffffffffffffffffffff168273ffffffffffffffffffffffffffffffffffffffff16036108ff5760006040517f64a0ae920000000000000000000000000000000000000000000000000000000081526004016108f691906121cd565b60405180910390fd5b6000610913838361090e611192565b6111ca565b90508373ffffffffffffffffffffffffffffffffffffffff168173ffffffffffffffffffffffffffffffffffffffff1614610989578382826040517f64283d7b00000000000000000000000000000000000000000000000000000000815260040161098093929190612937565b60405180910390fd5b50505050565b60096020528060005260406000206000915054906101000a900460ff1681565b6000600760008360ff1660ff16815260200190815260200160002060009054906101000a900460ff169050919050565b6109fa83838360405180602001604052806000815250610df8565b505050565b610a076113e4565b80600c9081610a169190612b1a565b5050565b6000610a25826110cd565b9050919050565b60008073ffffffffffffffffffffffffffffffffffffffff168273ffffffffffffffffffffffffffffffffffffffff1603610a9f5760006040517f89c62b64000000000000000000000000000000000000000000000000000000008152600401610a9691906121cd565b60405180910390fd5b600360008373ffffffffffffffffffffffffffffffffffffffff1673ffffffffffffffffffffffffffffffffffffffff168152602001908152602001600020549050919050565b610aee6113e4565b610af8600061146b565b565b6000600660009054906101000a900473ffffffffffffffffffffffffffffffffffffffff16905090565b600a60009054906101000a900460ff1615610b74576040517f08c379a0000000000000000000000000000000000000000000000000000000008152600401610b6b90612c38565b60405180910390fd5b60048260ff1610610bba576040517f08c379a0000000000000000000000000000000000000000000000000000000008152600401610bb190612ca4565b60405180910390fd5b60038160ff1610610c00576040517f08c379a0000000000000000000000000000000000000000000000000000000008152600401610bf790612d10565b60405180910390fd5b80600760008460ff1660ff16815260200190815260200160002060006101000a81548160ff021916908360ff160217905550600860003373ffffffffffffffffffffffffffffffffffffffff1673ffffffffffffffffffffffffffffffffffffffff16815260200190815260200160002060009054906101000a900460ff16610cdc576001600860003373ffffffffffffffffffffffffffffffffffffffff1673ffffffffffffffffffffffffffffffffffffffff16815260200190815260200160002060006101000a81548160ff0219169083151502179055505b3373ffffffffffffffffffffffffffffffffffffffff167f93eb3bf5e8c992ab09599fdcd8216c15a7fb2181884006a1648ee1506ed4204b8383604051610d24929190612d30565b60405180910390a25050565b606060018054610d3f9061274b565b80601f0160208091040260200160405190810160405280929190818152602001828054610d6b9061274b565b8015610db85780601f10610d8d57610100808354040283529160200191610db8565b820191906000526020600020905b815481529060010190602001808311610d9b57829003601f168201915b5050505050905090565b610dd4610dcd611192565b8383611531565b5050565b60076020528060005260406000206000915054906101000a900460ff1681565b610e0384848461088d565b610e17610e0e611192565b858585856116a0565b50505050565b610e256113e4565b600a60009054906101000a900460ff1615610e75576040517f08c379a0000000000000000000000000000000000000000000000000000000008152600401610e6c90612c38565b60405180910390fd5b6001600a60006101000a81548160ff0219169083151502179055503373ffffffffffffffffffffffffffffffffffffffff167fd230a480afecb0a1cc9901381b40f5b7927469c012685752083538d810e65ec842604051610ed691906124f1565b60405180910390a2565b6060610eeb826110cd565b506000610ef6611851565b90506000815111610f165760405180602001604052806000815250610f41565b80610f20846118e3565b604051602001610f31929190612d95565b6040516020818303038152906040525b915050919050565b6000600560008473ffffffffffffffffffffffffffffffffffffffff1673ffffffffffffffffffffffffffffffffffffffff16815260200190815260200160002060008373ffffffffffffffffffffffffffffffffffffffff1673ffffffffffffffffffffffffffffffffffffffff16815260200190815260200160002060009054906101000a900460ff16905092915050565b610fe56113e4565b600073ffffffffffffffffffffffffffffffffffffffff168173ffffffffffffffffffffffffffffffffffffffff16036110575760006040517f1e4fbdf700000000000000000000000000000000000000000000000000000000815260040161104e91906121cd565b60405180910390fd5b6110608161146b565b50565b60007f01ffc9a7000000000000000000000000000000000000000000000000000000007bffffffffffffffffffffffffffffffffffffffffffffffffffffffff1916827bffffffffffffffffffffffffffffffffffffffffffffffffffffffff1916149050919050565b6000806110d9836119b1565b9050600073ffffffffffffffffffffffffffffffffffffffff168173ffffffffffffffffffffffffffffffffffffffff160361114c57826040517f7e27328900000000000000000000000000000000000000000000000000000000815260040161114391906124f1565b60405180910390fd5b80915050919050565b60006004600083815260200190815260200160002060009054906101000a900473ffffffffffffffffffffffffffffffffffffffff169050919050565b600033905090565b6111a783838360016119ee565b505050565b6111c6828260405180602001604052806000815250611bb3565b5050565b6000806111d6846119b1565b9050600073ffffffffffffffffffffffffffffffffffffffff168373ffffffffffffffffffffffffffffffffffffffff161461121857611217818486611bd7565b5b600073ffffffffffffffffffffffffffffffffffffffff168173ffffffffffffffffffffffffffffffffffffffff16146112a95761125a6000856000806119ee565b6001600360008373ffffffffffffffffffffffffffffffffffffffff1673ffffffffffffffffffffffffffffffffffffffff168152602001908152602001600020600082825403925050819055505b600073ffffffffffffffffffffffffffffffffffffffff168573ffffffffffffffffffffffffffffffffffffffff161461132c576001600360008773ffffffffffffffffffffffffffffffffffffffff1673ffffffffffffffffffffffffffffffffffffffff168152602001908152602001600020600082825401925050819055505b846002600086815260200190815260200160002060006101000a81548173ffffffffffffffffffffffffffffffffffffffff021916908373ffffffffffffffffffffffffffffffffffffffff160217905550838573ffffffffffffffffffffffffffffffffffffffff168273ffffffffffffffffffffffffffffffffffffffff167fddf252ad1be2c89b69c2b068fc378daa952ba7f163c4a11628f55a4df523b3ef60405160405180910390a4809150509392505050565b6113ec611192565b73ffffffffffffffffffffffffffffffffffffffff1661140a610afa565b73ffffffffffffffffffffffffffffffffffffffff16146114695761142d611192565b6040517f118cdaa700000000000000000000000000000000000000000000000000000000815260040161146091906121cd565b60405180910390fd5b565b6000600660009054906101000a900473ffffffffffffffffffffffffffffffffffffffff16905081600660006101000a81548173ffffffffffffffffffffffffffffffffffffffff021916908373ffffffffffffffffffffffffffffffffffffffff1602179055508173ffffffffffffffffffffffffffffffffffffffff168173ffffffffffffffffffffffffffffffffffffffff167f8be0079c531659141344cd1fd0a4f28419497f9722a3daafe3b4186f6b6457e060405160405180910390a35050565b600073ffffffffffffffffffffffffffffffffffffffff168273ffffffffffffffffffffffffffffffffffffffff16036115a257816040517f5b08ba1800000000000000000000000000000000000000000000000000000000815260040161159991906121cd565b60405180910390fd5b80600560008573ffffffffffffffffffffffffffffffffffffffff1673ffffffffffffffffffffffffffffffffffffffff16815260200190815260200160002060008473ffffffffffffffffffffffffffffffffffffffff1673ffffffffffffffffffffffffffffffffffffffff16815260200190815260200160002060006101000a81548160ff0219169083151502179055508173ffffffffffffffffffffffffffffffffffffffff168373ffffffffffffffffffffffffffffffffffffffff167f17307eab39ab6107e8899845ad3d59bd9653f200f220920489ca2b5937696c3183604051611693919061205c565b60405180910390a3505050565b60008373ffffffffffffffffffffffffffffffffffffffff163b111561184a578273ffffffffffffffffffffffffffffffffffffffff1663150b7a02868685856040518563ffffffff1660e01b81526004016116ff9493929190612e0e565b6020604051808303816000875af192505050801561173b57506040513d601f19601f820116820180604052508101906117389190612e6f565b60015b6117bf573d806000811461176b576040519150601f19603f3d011682016040523d82523d6000602084013e611770565b606091505b5060008151036117b757836040517f64a0ae920000000000000000000000000000000000000000000000000000000081526004016117ae91906121cd565b60405180910390fd5b805160208201fd5b63150b7a0260e01b7bffffffffffffffffffffffffffffffffffffffffffffffffffffffff1916817bffffffffffffffffffffffffffffffffffffffffffffffffffffffff19161461184857836040517f64a0ae9200000000000000000000000000000000000000000000000000000000815260040161183f91906121cd565b60405180910390fd5b505b5050505050565b6060600c80546118609061274b565b80601f016020809104026020016040519081016040528092919081815260200182805461188c9061274b565b80156118d95780601f106118ae576101008083540402835291602001916118d9565b820191906000526020600020905b8154815290600101906020018083116118bc57829003601f168201915b5050505050905090565b6060600060016118f284611c9b565b01905060008167ffffffffffffffff8111156119115761191061236e565b5b6040519080825280601f01601f1916602001820160405280156119435781602001600182028036833780820191505090505b509050600082602083010190505b6001156119a6578080600190039150507f3031323334353637383961626364656600000000000000000000000000000000600a86061a8153600a858161199a57611999612e9c565b5b04945060008503611951575b819350505050919050565b60006002600083815260200190815260200160002060009054906101000a900473ffffffffffffffffffffffffffffffffffffffff169050919050565b8080611a275750600073ffffffffffffffffffffffffffffffffffffffff168273ffffffffffffffffffffffffffffffffffffffff1614155b15611b5b576000611a37846110cd565b9050600073ffffffffffffffffffffffffffffffffffffffff168373ffffffffffffffffffffffffffffffffffffffff1614158015611aa257508273ffffffffffffffffffffffffffffffffffffffff168173ffffffffffffffffffffffffffffffffffffffff1614155b8015611ab55750611ab38184610f49565b155b15611af757826040517fa9fbf51f000000000000000000000000000000000000000000000000000000008152600401611aee91906121cd565b60405180910390fd5b8115611b5957838573ffffffffffffffffffffffffffffffffffffffff168273ffffffffffffffffffffffffffffffffffffffff167f8c5be1e5ebec7d5bd14f71427d1e84f3dd0314c0f7b2291e5b200ac8c7c3b92560405160405180910390a45b505b836004600085815260200190815260200160002060006101000a81548173ffffffffffffffffffffffffffffffffffffffff021916908373ffffffffffffffffffffffffffffffffffffffff16021790555050505050565b611bbd8383611dee565b611bd2611bc8611192565b60008585856116a0565b505050565b611be2838383611ee7565b611c9657600073ffffffffffffffffffffffffffffffffffffffff168373ffffffffffffffffffffffffffffffffffffffff1603611c5757806040517f7e273289000000000000000000000000000000000000000000000000000000008152600401611c4e91906124f1565b60405180910390fd5b81816040517f177e802f000000000000000000000000000000000000000000000000000000008152600401611c8d929190612ecb565b60405180910390fd5b505050565b600080600090507a184f03e93ff9f4daa797ed6e38ed64bf6a1f0100000000000000008310611cf9577a184f03e93ff9f4daa797ed6e38ed64bf6a1f0100000000000000008381611cef57611cee612e9c565b5b0492506040810190505b6d04ee2d6d415b85acef81000000008310611d36576d04ee2d6d415b85acef81000000008381611d2c57611d2b612e9c565b5b0492506020810190505b662386f26fc100008310611d6557662386f26fc100008381611d5b57611d5a612e9c565b5b0492506010810190505b6305f5e1008310611d8e576305f5e1008381611d8457611d83612e9c565b5b0492506008810190505b6127108310611db3576127108381611da957611da8612e9c565b5b0492506004810190505b60648310611dd65760648381611dcc57611dcb612e9c565b5b0492506002810190505b600a8310611de5576001810190505b80915050919050565b600073ffffffffffffffffffffffffffffffffffffffff168273ffffffffffffffffffffffffffffffffffffffff1603611e605760006040517f64a0ae92000000000000000000000000000000000000000000000000000000008152600401611e5791906121cd565b60405180910390fd5b6000611e6e838360006111ca565b9050600073ffffffffffffffffffffffffffffffffffffffff168173ffffffffffffffffffffffffffffffffffffffff1614611ee25760006040517f73c6ac6e000000000000000000000000000000000000000000000000000000008152600401611ed991906121cd565b60405180910390fd5b505050565b60008073ffffffffffffffffffffffffffffffffffffffff168373ffffffffffffffffffffffffffffffffffffffff1614158015611f9f57508273ffffffffffffffffffffffffffffffffffffffff168473ffffffffffffffffffffffffffffffffffffffff161480611f605750611f5f8484610f49565b5b80611f9e57508273ffffffffffffffffffffffffffffffffffffffff16611f8683611155565b73ffffffffffffffffffffffffffffffffffffffff16145b5b90509392505050565b6000604051905090565b600080fd5b600080fd5b60007fffffffff0000000000000000000000000000000000000000000000000000000082169050919050565b611ff181611fbc565b8114611ffc57600080fd5b50565b60008135905061200e81611fe8565b92915050565b60006020828403121561202a57612029611fb2565b5b600061203884828501611fff565b91505092915050565b60008115159050919050565b61205681612041565b82525050565b6000602082019050612071600083018461204d565b92915050565b600081519050919050565b600082825260208201905092915050565b60005b838110156120b1578082015181840152602081019050612096565b60008484015250505050565b6000601f19601f8301169050919050565b60006120d982612077565b6120e38185612082565b93506120f3818560208601612093565b6120fc816120bd565b840191505092915050565b6000602082019050818103600083015261212181846120ce565b905092915050565b6000819050919050565b61213c81612129565b811461214757600080fd5b50565b60008135905061215981612133565b92915050565b60006020828403121561217557612174611fb2565b5b60006121838482850161214a565b91505092915050565b600073ffffffffffffffffffffffffffffffffffffffff82169050919050565b60006121b78261218c565b9050919050565b6121c7816121ac565b82525050565b60006020820190506121e260008301846121be565b92915050565b6121f1816121ac565b81146121fc57600080fd5b50565b60008135905061220e816121e8565b92915050565b6000806040838503121561222b5761222a611fb2565b5b6000612239858286016121ff565b925050602061224a8582860161214a565b9150509250929050565b60006020828403121561226a57612269611fb2565b5b6000612278848285016121ff565b91505092915050565b60008060006060848603121561229a57612299611fb2565b5b60006122a8868287016121ff565b93505060206122b9868287016121ff565b92505060406122ca8682870161214a565b9150509250925092565b600060ff82169050919050565b6122ea816122d4565b81146122f557600080fd5b50565b600081359050612307816122e1565b92915050565b60006020828403121561232357612322611fb2565b5b6000612331848285016122f8565b91505092915050565b612343816122d4565b82525050565b600060208201905061235e600083018461233a565b92915050565b600080fd5b600080fd5b7f4e487b7100000000000000000000000000000000000000000000000000000000600052604160045260246000fd5b6123a6826120bd565b810181811067ffffffffffffffff821117156123c5576123c461236e565b5b80604052505050565b60006123d8611fa8565b90506123e4828261239d565b919050565b600067ffffffffffffffff8211156124045761240361236e565b5b61240d826120bd565b9050602081019050919050565b82818337600083830152505050565b600061243c612437846123e9565b6123ce565b90508281526020810184848401111561245857612457612369565b5b61246384828561241a565b509392505050565b600082601f8301126124805761247f612364565b5b8135612490848260208601612429565b91505092915050565b6000602082840312156124af576124ae611fb2565b5b600082013567ffffffffffffffff8111156124cd576124cc611fb7565b5b6124d98482850161246b565b91505092915050565b6124eb81612129565b82525050565b600060208201905061250660008301846124e2565b92915050565b6000806040838503121561252357612522611fb2565b5b6000612531858286016122f8565b9250506020612542858286016122f8565b9150509250929050565b61255581612041565b811461256057600080fd5b50565b6000813590506125728161254c565b92915050565b6000806040838503121561258f5761258e611fb2565b5b600061259d858286016121ff565b92505060206125ae85828601612563565b9150509250929050565b600067ffffffffffffffff8211156125d3576125d261236e565b5b6125dc826120bd565b9050602081019050919050565b60006125fc6125f7846125b8565b6123ce565b90508281526020810184848401111561261857612617612369565b5b61262384828561241a565b509392505050565b600082601f8301126126405761263f612364565b5b81356126508482602086016125e9565b91505092915050565b6000806000806080858703121561267357612672611fb2565b5b6000612681878288016121ff565b9450506020612692878288016121ff565b93505060406126a38782880161214a565b925050606085013567ffffffffffffffff8111156126c4576126c3611fb7565b5b6126d08782880161262b565b91505092959194509250565b600080604083850312156126f3576126f2611fb2565b5b6000612701858286016121ff565b9250506020612712858286016121ff565b9150509250929050565b7f4e487b7100000000000000000000000000000000000000000000000000000000600052602260045260246000fd5b6000600282049050600182168061276357607f821691505b6020821081036127765761277561271c565b5b50919050565b7f4368696d657261206e6f7420626f726e207965742e0000000000000000000000600082015250565b60006127b2601583612082565b91506127bd8261277c565b602082019050919050565b600060208201905081810360008301526127e1816127a5565b9050919050565b7f4e6f74206120636f6e7472696275746f722e0000000000000000000000000000600082015250565b600061281e601283612082565b9150612829826127e8565b602082019050919050565b6000602082019050818103600083015261284d81612811565b9050919050565b7f416c7265616479206d696e7465642e0000000000000000000000000000000000600082015250565b600061288a600f83612082565b915061289582612854565b602082019050919050565b600060208201905081810360008301526128b98161287d565b9050919050565b7f4e487b7100000000000000000000000000000000000000000000000000000000600052601160045260246000fd5b60006128fa82612129565b91507fffffffffffffffffffffffffffffffffffffffffffffffffffffffffffffffff820361292c5761292b6128c0565b5b600182019050919050565b600060608201905061294c60008301866121be565b61295960208301856124e2565b61296660408301846121be565b949350505050565b60008190508160005260206000209050919050565b60006020601f8301049050919050565b600082821b905092915050565b6000600883026129d07fffffffffffffffffffffffffffffffffffffffffffffffffffffffffffffffff82612993565b6129da8683612993565b95508019841693508086168417925050509392505050565b6000819050919050565b6000612a17612a12612a0d84612129565b6129f2565b612129565b9050919050565b6000819050919050565b612a31836129fc565b612a45612a3d82612a1e565b8484546129a0565b825550505050565b600090565b612a5a612a4d565b612a65818484612a28565b505050565b5b81811015612a8957612a7e600082612a52565b600181019050612a6b565b5050565b601f821115612ace57612a9f8161296e565b612aa884612983565b81016020851015612ab7578190505b612acb612ac385612983565b830182612a6a565b50505b505050565b600082821c905092915050565b6000612af160001984600802612ad3565b1980831691505092915050565b6000612b0a8383612ae0565b9150826002028217905092915050565b612b2382612077565b67ffffffffffffffff811115612b3c57612b3b61236e565b5b612b46825461274b565b612b51828285612a8d565b600060209050601f831160018114612b845760008415612b72578287015190505b612b7c8582612afe565b865550612be4565b601f198416612b928661296e565b60005b82811015612bba57848901518255600182019150602085019450602081019050612b95565b86831015612bd75784890151612bd3601f891682612ae0565b8355505b6001600288020188555050505b505050505050565b7f4368696d65726120616c726561647920626f726e2e0000000000000000000000600082015250565b6000612c22601583612082565b9150612c2d82612bec565b602082019050919050565b60006020820190508181036000830152612c5181612c15565b9050919050565b7f496e76616c69642067656e652074797065000000000000000000000000000000600082015250565b6000612c8e601183612082565b9150612c9982612c58565b602082019050919050565b60006020820190508181036000830152612cbd81612c81565b9050919050565b7f496e76616c69642067656e652076616c75650000000000000000000000000000600082015250565b6000612cfa601283612082565b9150612d0582612cc4565b602082019050919050565b60006020820190508181036000830152612d2981612ced565b9050919050565b6000604082019050612d45600083018561233a565b612d52602083018461233a565b9392505050565b600081905092915050565b6000612d6f82612077565b612d798185612d59565b9350612d89818560208601612093565b80840191505092915050565b6000612da18285612d64565b9150612dad8284612d64565b91508190509392505050565b600081519050919050565b600082825260208201905092915050565b6000612de082612db9565b612dea8185612dc4565b9350612dfa818560208601612093565b612e03816120bd565b840191505092915050565b6000608082019050612e2360008301876121be565b612e3060208301866121be565b612e3d60408301856124e2565b8181036060830152612e4f8184612dd5565b905095945050505050565b600081519050612e6981611fe8565b92915050565b600060208284031215612e8557612e84611fb2565b5b6000612e9384828501612e5a565b91505092915050565b7f4e487b7100000000000000000000000000000000000000000000000000000000600052601260045260246000fd5b6000604082019050612ee060008301856121be565b612eed60208301846124e2565b939250505056fea26469706673582212202d269f7a1c93341c2fa931a19a147be535efd8a5008f28bbaaa8e2a1e71145ef64736f6c63430008140033",
  "linkReferences": {},
  "deployedLinkReferences": {}
}